S1137000A267A075205E75205E7020337020A77182
S113701020E571201A72206A7220CE72202C73200F
S1137020AA73200D74205274209274A20DA07720AC
S11370305E7560A2E0A075206475A9BAA2FE20293D
S113704075A2EAA075206475A950A200202975A92B
S11370502D202785A96DA26C2029754C3E852082A0
S11370607020A37020C57020D87020E97020FC70B7
S1137070201A71202D71204571206271207A714C83
S11370809271A272A075206475AD0D51F00EA92401
S1137090202785AD0D512033854C3E85A27AA075FD
S11370A04C5E75A27DA075206475AD0D51F00CADDC
S11370B01051AE0F512029754C3E85A900A2002025
S11370C029754C3E85A287A075206475AD1251AE1A
S11370D011512029754C3E85A28FA075206475A599
S11370E081A6802029754C3E85A294A075206475E4
S11370F0AD1451AE13512029754C3E85A29BA07549
S1137100206475AD135138ED11518504AD1451ED62
S11371101251A6042029754C3E85A2A3A0752064B3
S113712075AD1051AE0F512029754C3E85A2ABA010
S113713075206475ADFA53203385203375A98020FA
S113714033854C3E85A2B2A075206475ADFC53AE68
S1137150FB53202975203375A908A2002029754CFA
S11371603E85A2BDA075206475ADFD5320338520F6
S11371703375A9802033854C3E85A2C6A075206452
S113718075AD1E54203385203375A9C02033854C3A
S11371903E85AD1F542920F007A2CDA0754C5E7525
S11371A0A2D7A0754C5E75A2F3A075206475AD15C9
S11371B051201C75AD1751AE1651202475AD1951CF
S11371C0AE1851202475AD1B51AE1A51202475AD53
S11371D01F51AE1E51202975AD1D51AE1C512029E1
S11371E075203E8560A20DA076206475ADFA53200B
S11371F01C75ADFD53201C75AD2051201C75AD01CF
S113720054201C75AD0254201C75AD0354201C750C
S1137210AD0654201C75203E8560A237A0762064FC
S113722075AD0854AE0754202475AD0A54AE095404
S1137230202475AD1054AE0F54202475AD1254AEF5
S11372401154202975A24BA076206475A200EC018C
S113725054F014BDB25E2980D003E880F1BD725EA3
S1137260AA20E674204D754C3E85208D72901DA297
S113727050A076205E75A200ECFA53F00FBDF254D4
S11372802901F00520A272A602E880EC60A200ECBD
S1137290FA53F00ABDF2542901D005E880F11860D0
S11372A038608602201173201A73A262A0762064CB
S11372B075A602BDF25C203385A26AA076206475AF
S11372C0A402B9F25DBE725D2029754C3E8520F1A1
S11372D072901DA255A076205E75A200ECFA53F0C0
S11372E00FBDF2542901D005200673A602E880ECF4
S11372F060A200ECFA53F00ABDF2542901F005E84B
S113730080F1186038608602201173201A734C3E95
S11373108520E674204D754C1F75A25CA076206410
S113732075A402B9725CBEF25B4C2975A273A07697
S1137330205E75A27BA076205E75A200ECFA53F065
S113734008204A73A602E880F36086028A201C752E
S1137350A602BD7254201C75A402B9F256BE725620
S1137360202475201F75A602BD7255201C75A60227
S1137370BDF255201C75A602BDF254201C75A40252
S1137380B9725CBEF25B202475A602BDF25C201CBF
S113739075201F75A402B9F25DBE725D20247520AC
S11373A01F75A60220E6744C4775A2A4A076205E41
S11373B075A2ABA076205E75A200ECFD53F0082008
S11373C0C873A602E880F36086028A201C75A602B0
S11373D0BD6467201C75A602BDE467201C75201FD0
S11373E075201F75A602BD6468201C75201F75A436
S11373F002B96469BEE468202475A402B9646ABE53
S1137400E469202475A60220FD744C3D75A2C9A030
S113741076205E75A2D0A076205E75A200EC205185
S1137420F008202B74A602E880F36086028A201CF0
S113743075A602BD2151201C75A402B9A151BE61DB
S113744051202475A402B92152BEE1512029754C62
S11374503E85A2E0A076205E75A2E8A076205E7547
S1137460A200EC0154F02A86028A201C75A602BDF3
S1137470B25E201C75A602BD725E201C75A602BDFC
S1137480725EAA20E674204D75203E85A602E8802F
S1137490D160A2F7A076205E75A2FFA076205E756B
S11374A0A200EC0254F03E86028A201C75A602BD9E
S11374B0325F201C75A602BDF25E201C75A602BDBB
S11374C03260203385A602BDF25F203385A602BD5B
S11374D0B25F203385A602BD725F203385203E85CE
S11374E0A602E880BD608603BD725A8505BDF25AC6
S11374F01869008500BD725B69028501608603A975
S1137500008500A90A8501A603F01018A5006920CA
S11375108500A50169008501CAD0F060203385A9E2
S1137520204C278520297580F68604203385A50400
S11375304C3385A92F202785A9244C2785A600A490
S113754001202D854C3E85204D754C3E85A000A51F
S113755005F00AB100202785C8C60580F2602064C2
S1137560754C3E854C2D8541534D205245504F520C
S113757054005354415455533D004F4B004552520F
S11375804C494E453D240053544152543D2400502F
S1137590433D2400484947483D240042595445533B
S11375A03D24004C494E45533D240053594D533D11
S11375B024004E414D45504F4F4C3D240046495800
S11375C05550533D2400524546533D2400545255D2
S11375D04E433D594553005452554E433D4E4F0082
S11375E04D415020454E443D2400205544415441D2
S11375F03D24005345414C20464C204241534520F4
S1137600454E44204C454E20464E562000434F558F
S11376104E54532053594D204649582052454C202E
S113762045585020494D5020494D50524553205201
S1137630454C434E542000504B472040204C454E6F
S113764020424F445920494E5354002049442000BD
S11376505553454400554E55534544004445463D15
S1137660240020524546533D240020464952535499
S11376703D240053594D424F4C5300534C20535416
S11376802056414C5545204B2020572020464C2065
S11376904445462020555345204649525354204ED4
S11376A0414D450046495855505300534C205354BE
S11376B0204D4F44452053454C20534954452042C6
S11376C0415345204E414D450052454C4F435300D4
S11376D0534C204B202053495445205441524700D9
S11376E04558504F52545300534C204B202053596B
S11376F04D204E414D4500494D504F525453005377
S11377004C204B20204C454E20464E560041534DB4
S10E7710205245504F5254204F4B00B4
S90370008C
