S1134800A267A04D205E4D205E4820334820A74972
S113481020E549201A4A206A4A20CE4A202C4B20FF
S1134820AA4B200D4C20524C20924CA20DA04F209C
S11348305E4D60A2E0A04D20644DA9BAA2FE2029DD
S11348404DA2EAA04D20644DA950A20020294DA9F3
S11348502D202785A96DA26C20294D4C3E852082F0
S11348604820A34820C54820D84820E94820FC48CF
S1134870201A49202D49204549206249207A494C73
S11348809249A272A04D20644DAD0D51F00EA924A1
S1134890202785AD0D512033854C3E85A27AA04D4D
S11348A04C5E4DA27DA04D20644DAD0D51F00CAD7C
S11348B01051AE0F5120294D4C3E85A900A2002075
S11348C0294D4C3E85A287A04D20644DAD1251AEBA
S11348D0115120294D4C3E85A28FA04D20644DA539
S11348E081A68020294D4C3E85A294A04D20644D84
S11348F0AD1451AE135120294D4C3E85A29BA04DC1
S113490020644DAD135138ED11518504AD1451EDB2
S11349101251A60420294D4C3E85A2A3A04D20642B
S11349204DAD1051AE0F5120294D4C3E85A2ABA088
S11349304D20644DADFA5320338520334DA980209A
S113494033854C3E85A2B2A04D20644DADFC53AEE0
S1134950FB5320294D20334DA908A20020294D4C9A
S11349603E85A2BDA04D20644DADFD53203385206E
S1134970334DA9802033854C3E85A2C6A04D2064CA
S11349804DAD1E5420338520334DA9C02033854CB2
S11349903E85AD1F542920F007A2CDA04D4C5E4D9D
S11349A0A2D7A04D4C5E4DA2F3A04D20644DAD1591
S11349B051201C4DAD1751AE165120244DAD195147
S11349C0AE185120244DAD1B51AE1A5120244DADCB
S11349D01F51AE1E5120294DAD1D51AE1C51202931
S11349E04D203E8560A20DA04E20644DADFA5320AB
S11349F01C4DADFD53201C4DAD2051201C4DAD016F
S1134A0054201C4DAD0254201C4DAD0354201C4DAC
S1134A10AD0654201C4D203E8560A237A04E206474
S1134A204DAD0854AE075420244DAD0A54AE09547C
S1134A3020244DAD1054AE0F5420244DAD1254AE6D
S1134A40115420294DA24BA04E20644DA200EC012C
S1134A5054F014BDB25E2980D003E880F1BD725ECB
S1134A60AA20E64C204D4D4C3E85208D4A901DA237
S1134A7050A04E205E4DA200ECFA53F00FBDF2544C
S1134A802901F00520A24AA602E880EC60A200EC0D
S1134A90FA53F00ABDF2542901D005E880F11860F8
S1134AA03860860220114B201A4BA262A04E20646B
S1134AB04DA602BDF25C203385A26AA04E20644D4F
S1134AC0A402B9F25DBE725D20294D4C3E8520F1F1
S1134AD04A901DA255A04E205E4DA200ECFA53F060
S1134AE00FBDF2542901D00520064BA602E880EC44
S1134AF060A200ECFA53F00ABDF2542901F005E873
S1134B0080F118603860860220114B201A4B4C3E0D
S1134B108520E64C204D4D4C1F4DA25CA04E2064D8
S1134B204DA402B9725CBEF25B4C294DA273A04E37
S1134B30205E4DA27BA04E205E4DA200ECFA53F005
S1134B4008204A4BA602E880F36086028A201C4DA6
S1134B50A602BD7254201C4DA402B9F256BE725670
S1134B6020244D201F4DA602BD7255201C4DA602C7
S1134B70BDF255201C4DA602BDF254201C4DA402CA
S1134B80B9725CBEF25B20244DA602BDF25C201C0F
S1134B904D201F4DA402B9F25DBE725D20244D204C
S1134BA01F4DA60220E64C4C474DA2A4A04E205E09
S1134BB04DA2ABA04E205E4DA200ECFD53F00820A8
S1134BC0C84BA602E880F36086028A201C4DA60228
S1134BD0BD6467201C4DA602BDE467201C4D201F48
S1134BE04D201F4DA602BD6468201C4D201F4DA4FE
S1134BF002B96469BEE46820244DA402B9646ABEA3
S1134C00E46920244DA60220FD4C4C3D4DA2C9A0D0
S1134C104E205E4DA2D0A04E205E4DA200EC20514D
S1134C20F008202B4CA602E880F36086028A201C40
S1134C304DA602BD2151201C4DA402B9A151BE6153
S1134C405120244DA402B92152BEE15120294D4CDA
S1134C503E85A2E0A04E205E4DA2E8A04E205E4D0F
S1134C60A200EC0154F02A86028A201C4DA602BD43
S1134C70B25E201C4DA602BD725E201C4DA602BD74
S1134C80725EAA20E64C204D4D203E85A602E880A7
S1134C90D160A2F7A04E205E4DA2FFA04E205E4D33
S1134CA0A200EC0254F03E86028A201C4DA602BDEE
S1134CB0325F201C4DA602BDF25E201C4DA602BD33
S1134CC03260203385A602BDF25F203385A602BD83
S1134CD0B25F203385A602BD725F203385203E85F6
S1134CE0A602E880BD608603BD725A8505BDF25AEE
S1134CF01869008500BD725B69028501608603A99D
S1134D00008500A90A8501A603F01018A5006920F2
S1134D108500A50169008501CAD0F060203385A90A
S1134D20204C278520294D80F68604203385A50450
S1134D304C3385A92F202785A9244C2785A600A4B8
S1134D4001202D854C3E85204D4D4C3E85A000A56F
S1134D5005F00AB100202785C8C60580F2602064EA
S1134D604D4C3E854C2D8541534D205245504F525C
S1134D7054005354415455533D004F4B0045525237
S1134D804C494E453D240053544152543D24005057
S1134D90433D2400484947483D2400425954455363
S1134DA03D24004C494E45533D240053594D533D39
S1134DB024004E414D45504F4F4C3D240046495828
S1134DC05550533D2400524546533D2400545255FA
S1134DD04E433D594553005452554E433D4E4F00AA
S1134DE04D415020454E443D2400205544415441FA
S1134DF03D24005345414C20464C2042415345201C
S1134E00454E44204C454E20464E562000434F55B7
S1134E104E54532053594D204649582052454C2056
S1134E2045585020494D5020494D50524553205229
S1134E30454C434E542000504B472040204C454E97
S1134E4020424F445920494E5354002049442000E5
S1134E505553454400554E55534544004445463D3D
S1134E60240020524546533D2400204649525354C1
S1134E703D240053594D424F4C5300534C2053543E
S1134E802056414C5545204B2020572020464C208D
S1134E904445462020555345204649525354204EFC
S1134EA0414D450046495855505300534C205354E6
S1134EB0204D4F44452053454C20534954452042EE
S1134EC0415345204E414D450052454C4F435300FC
S1134ED0534C204B20205349544520544152470001
S1134EE04558504F52545300534C204B2020535993
S1134EF04D204E414D4500494D504F52545300539F
S1134F004C204B20204C454E20464E560041534DDC
S10E4F10205245504F5254204F4B00DC
S9034800B4
