S113BB80464ED622130CD6058CBBCCBF20CCBBB002
S113BB9003A9E16020E1BBB008A2B9A0BF2070BF37
S113BBA060A5FA8500A5FB850120D2BD20E3BDF088
S113BBB01220E8BD20BCBC900A202DBD900520EFCA
S113BBC0BD1860A286A0BF2070BF1860A276A0BF77
S113BBD02020BCB0021860A51E8514A51F85153849
S113BBE06020F8BB9010200BBC900BA282A0BF2059
S113BBF020BC900238601860A27AA0BF2020BC90BC
S113BC001DA51E851AA51F851B3860A27EA0BF2016
S113BC1020BC900AA51E851CA51F851D38601860D0
S113BC20862084216422A9808523205CBCB02B203B
S113BC306CBC90052086BCB008E622D0EDE62380DB
S113BC40E9A007B1222901F0F018A5226908851E90
S113BC50A5236900851FA90138601860A523C9FFC1
S113BC60D006A522C9F8B00218603860A000B1223D
S113BC70C946D010C8B122C94ED009C8B122C9D60C
S113BC80D00238601860A003B122A000D120D0F403
S113BC90A004B122A001D120D0EAA005B122A002C3
S113BCA0D120D0E0A006B122A003D120D0D63860A4
S113BCB06C14006C1A006C1C006C1E00208CBD906F
S113BCC06AA50285048508A5038505850920D2BDDA
S113BCD020E3BDC92BF01F208CBD904FA50FC903D5
S113BCE0B00AA5058507A5028506802FA50285064D
S113BCF0A5038507802520E8BD208CBD902DA502D5
S113BD000503F027A502D002C603C60218A50465E0
S113BD10028506A50565038507B010A507C505902E
S113BD200AD006A506C50490023860186064102085
S113BD30D2BD20E3BDF039C927F012208CBD903666
S113BD40A503D032A5022078BD902B80E220E8BD67
S113BD50641120E3BDF01FC927F00C2078BD9016B4
S113BD60E61120E8BD80EBA511F00B20E8BD80BFF3
S113BD70A510F00238601860850EA510C940B00AFD
S113BD80A8A50E990079E6103860186020D2BD6429
S113BD90026403640F20E3BDC924D00320E8BD205E
S113BDA0E3BD20B6BC9023A60FE004B023480602EE
S113BDB02603060226030602260306022603680556
S113BDC0028502E60F20E8BD80D5A50FF002386099
S113BDD0186020E3BDC920F005C909F0016020E81E
S113BDE0BD80EFA000B10060E600D002E60160640F
S113BDF012204ABEB041A509C97FD016A50820B9B2
S113BE00BCA50829E01869208508A97F690085096F
S113BE1080DF20B3BCB02C2070BE9007A90185122E
S113BE2020A3BEA509C507D006A508C506F008E6E7
S113BE3008D0BEE60980BAA512D007A2BFA0BF20D1
S113BE4070BF60A2C4A0BF4C70BFA509C507900C09
S113BE50D008A508C506F004900238601860A50B48
S113BE60C50790F8D0F4A50AC506F0F090EE80EA74
S113BE70A508850AA509850BA200A50BC97FD002D8
S113BE801860205EBEB01AA000B10ADD0079D0119E
S113BE90E8E410F00AE60AD0E1E60BF00480DB38AF
S113BEA0601860A5092036BFA5082036BFA508295B
S113BEB00F186510C9119004A92A8002A92020B086
S113BEC0BCA50829F0850CA509850D20D9BEA93A81
S113BED020B0BC20E3BE4C51BFA50D2036BFA50C3D
S113BEE04C36BF6411A511F00EC908D00AA9202050
S113BEF0B0BCA97C20B0BCA92020B0BCA411B10C5A
S113BF002036BFE611A511C91090DAA92020B0BCD3
S113BF10A97C20B0BCA92020B0BC6411A411B10C30
S113BF20C9209004C97F9002A92E20B0BCE611A5B7
S113BF3011C91090E760484A4A4A4A2041BF68291B
S113BF400FC90A90061869374CB0BC1869304CB058
S113BF50BCA90D20B0BCA90A4CB0BC86008401A0C9
S113BF6000B100F00A20B0BCC8D0F6E60180F2604F
S113BF70205BBF4C51BF30E99F37D2506142B114AE
S113BF80D7ADCEA6A5C25320535441525420454E9A
S113BF90447C2B434F554E542042427C27544558F1
S113BFA05427205B2E2E2E5D2C203F2048454C50DC
S113BFB02C20512051554954005320494D500053D1
S113BFC0204E4600532041424F525400533A2053CE
S113BFD045415243482046524F4D2052414D205432
S113BFE04F204841534845442048494D4F4E204333
S105BFF04DC43A
S903BB8CB5
